{
  "_format": "hh-sol-artifact-1",
  "contractName": "WhitelistPlugin",
  "sourceName": "contracts/WhitelistPlugin.sol",
  "abi": [
    {
      "inputs": [],
      "stateMutability": "nonpayable",
      "type": "constructor"
    },
    {
      "inputs": [
        {
          "internalType": "address",
          "name": "account",
          "type": "address"
        }
      ],
      "name": "AddressNotWhiteListed",
      "type": "error"
    },
    {
      "inputs": [
        {
          "internalType": "address",
          "name": "safe",
          "type": "address"
        },
        {
          "internalType": "address",
          "name": "caller",
          "type": "address"
        }
      ],
      "name": "CallerIsNotOwner",
      "type": "error"
    },
    {
      "anonymous": false,
      "inputs": [
        {
          "indexed": true,
          "internalType": "address",
          "name": "account",
          "type": "address"
        }
      ],
      "name": "AddressRemovedFromWhitelist",
      "type": "event"
    },
    {
      "anonymous": false,
      "inputs": [
        {
          "indexed": true,
          "internalType": "address",
          "name": "account",
          "type": "address"
        }
      ],
      "name": "AddressWhitelisted",
      "type": "event"
    },
    {
      "anonymous": false,
      "inputs": [
        {
          "indexed": true,
          "internalType": "bytes32",
          "name": "metadataHash",
          "type": "bytes32"
        },
        {
          "indexed": false,
          "internalType": "bytes",
          "name": "data",
          "type": "bytes"
        }
      ],
      "name": "Metadata",
      "type": "event"
    },
    {
      "anonymous": false,
      "inputs": [
        {
          "indexed": true,
          "internalType": "address",
          "name": "account",
          "type": "address"
        }
      ],
      "name": "TuVieja",
      "type": "event"
    },
    {
      "inputs": [
        {
          "internalType": "contract ISafeProtocolManager",
          "name": "manager",
          "type": "address"
        },
        {
          "internalType": "contract ISafe",
          "name": "safe",
          "type": "address"
        },
        {
          "components": [
            {
              "components": [
                {
                  "internalType": "address payable",
                  "name": "to",
                  "type": "address"
                },
                {
                  "internalType": "uint256",
                  "name": "value",
                  "type": "uint256"
                },
                {
                  "internalType": "bytes",
                  "name": "data",
                  "type": "bytes"
                }
              ],
              "internalType": "struct SafeProtocolAction[]",
              "name": "actions",
              "type": "tuple[]"
            },
            {
              "internalType": "uint256",
              "name": "nonce",
              "type": "uint256"
            },
            {
              "internalType": "bytes32",
              "name": "metadataHash",
              "type": "bytes32"
            }
          ],
          "internalType": "struct SafeTransaction",
          "name": "safetx",
          "type": "tuple"
        }
      ],
      "name": "executeFromPlugin",
      "outputs": [
        {
          "internalType": "bytes[]",
          "name": "data",
          "type": "bytes[]"
        }
      ],
      "stateMutability": "nonpayable",
      "type": "function"
    },
    {
      "inputs": [],
      "name": "metadataHash",
      "outputs": [
        {
          "internalType": "bytes32",
          "name": "",
          "type": "bytes32"
        }
      ],
      "stateMutability": "view",
      "type": "function"
    },
    {
      "inputs": [],
      "name": "metadataProvider",
      "outputs": [
        {
          "internalType": "uint256",
          "name": "providerType",
          "type": "uint256"
        },
        {
          "internalType": "bytes",
          "name": "location",
          "type": "bytes"
        }
      ],
      "stateMutability": "view",
      "type": "function"
    },
    {
      "inputs": [],
      "name": "name",
      "outputs": [
        {
          "internalType": "string",
          "name": "",
          "type": "string"
        }
      ],
      "stateMutability": "view",
      "type": "function"
    },
    {
      "inputs": [],
      "name": "requiresRootAccess",
      "outputs": [
        {
          "internalType": "bool",
          "name": "",
          "type": "bool"
        }
      ],
      "stateMutability": "view",
      "type": "function"
    },
    {
      "inputs": [
        {
          "internalType": "bytes4",
          "name": "interfaceId",
          "type": "bytes4"
        }
      ],
      "name": "supportsInterface",
      "outputs": [
        {
          "internalType": "bool",
          "name": "",
          "type": "bool"
        }
      ],
      "stateMutability": "view",
      "type": "function"
    },
    {
      "inputs": [],
      "name": "version",
      "outputs": [
        {
          "internalType": "string",
          "name": "",
          "type": "string"
        }
      ],
      "stateMutability": "view",
      "type": "function"
    },
    {
      "inputs": [
        {
          "internalType": "address",
          "name": "",
          "type": "address"
        },
        {
          "internalType": "address",
          "name": "",
          "type": "address"
        }
      ],
      "name": "whitelistedAddresses",
      "outputs": [
        {
          "internalType": "bool",
          "name": "",
          "type": "bool"
        }
      ],
      "stateMutability": "view",
      "type": "function"
    }
  ],
  "bytecode": "0x60c06040523480156200001157600080fd5b506040518060a001604052806040518060400160405280601081526020017f57686974656c69737420506c7567696e0000000000000000000000000000000081525081526020016040518060400160405280600581526020017f342e322e3300000000000000000000000000000000000000000000000000000081525081526020016001151581526020016040518060200160405280600081525081526020016040518060200160405280600081525081525080806000015160009081620000da919062000465565b50806020015160019081620000f0919062000465565b508060400151151560808115158152505062000117816200017e60201b620004a41760201c565b8051906020012060a081815250505060a0517f522c683f99251eea7f3b027592e92a5398e7582983be1f7c0f33715ce025740f62000160836200017e60201b620004a41760201c565b6040516200016f9190620005e6565b60405180910390a250620007bc565b606060008083600001518460200151856040015186606001518760800151604051602001620001b295949392919062000679565b604051602081830303815290604052604051602001620001d5939291906200077d565b6040516020818303038152906040529050919050565b600081519050919050565b7f4e487b7100000000000000000000000000000000000000000000000000000000600052604160045260246000fd5b7f4e487b7100000000000000000000000000000000000000000000000000000000600052602260045260246000fd5b600060028204905060018216806200026d57607f821691505b60208210810362000283576200028262000225565b5b50919050565b60008190508160005260206000209050919050565b60006020601f8301049050919050565b600082821b905092915050565b600060088302620002ed7fffffffffffffffffffffffffffffffffffffffffffffffffffffffffffffffff82620002ae565b620002f98683620002ae565b95508019841693508086168417925050509392505050565b6000819050919050565b6000819050919050565b600062000346620003406200033a8462000311565b6200031b565b62000311565b9050919050565b6000819050919050565b620003628362000325565b6200037a62000371826200034d565b848454620002bb565b825550505050565b600090565b6200039162000382565b6200039e81848462000357565b505050565b5b81811015620003c657620003ba60008262000387565b600181019050620003a4565b5050565b601f8211156200041557620003df8162000289565b620003ea846200029e565b81016020851015620003fa578190505b6200041262000409856200029e565b830182620003a3565b50505b505050565b600082821c905092915050565b60006200043a600019846008026200041a565b1980831691505092915050565b600062000455838362000427565b9150826002028217905092915050565b6200047082620001eb565b67ffffffffffffffff8111156200048c576200048b620001f6565b5b62000498825462000254565b620004a5828285620003ca565b600060209050601f831160018114620004dd5760008415620004c8578287015190505b620004d4858262000447565b86555062000544565b601f198416620004ed8662000289565b60005b828110156200051757848901518255600182019150602085019450602081019050620004f0565b8683101562000537578489015162000533601f89168262000427565b8355505b6001600288020188555050505b505050505050565b600081519050919050565b600082825260208201905092915050565b60005b83811015620005885780820151818401526020810190506200056b565b60008484015250505050565b6000601f19601f8301169050919050565b6000620005b2826200054c565b620005be818562000557565b9350620005d081856020860162000568565b620005db8162000594565b840191505092915050565b60006020820190508181036000830152620006028184620005a5565b905092915050565b600082825260208201905092915050565b60006200062882620001eb565b6200063481856200060a565b93506200064681856020860162000568565b620006518162000594565b840191505092915050565b60008115159050919050565b62000673816200065c565b82525050565b600060a08201905081810360008301526200069581886200061b565b90508181036020830152620006ab81876200061b565b9050620006bc604083018662000668565b8181036060830152620006d081856200061b565b90508181036080830152620006e681846200061b565b90509695505050505050565b600060ff82169050919050565b60008160f81b9050919050565b60006200071982620006ff565b9050919050565b620007356200072f82620006f2565b6200070c565b82525050565b600081905092915050565b600062000753826200054c565b6200075f81856200073b565b93506200077181856020860162000568565b80840191505092915050565b60006200078b828662000720565b6001820191506200079d828562000720565b600182019150620007af828462000746565b9150819050949350505050565b60805160a051610c47620007e260003960006104430152600061041f0152610c476000f3fe608060405234801561001057600080fd5b50600436106100885760003560e01c806386f9f8eb1161005b57806386f9f8eb14610129578063be193d2714610159578063c5a1d7f014610177578063d3d72d2a1461019557610088565b806301ffc9a71461008d5780630227bad3146100bd57806306fdde03146100ed57806354fd4d501461010b575b600080fd5b6100a760048036038101906100a2919061056f565b6101b4565b6040516100b491906105b7565b60405180910390f35b6100d760048036038101906100d291906106a4565b610286565b6040516100e49190610865565b60405180910390f35b6100f56102d2565b60405161010291906108dc565b60405180910390f35b610113610360565b60405161012091906108dc565b60405180910390f35b610143600480360381019061013e919061092a565b6103ee565b60405161015091906105b7565b60405180910390f35b61016161041d565b60405161016e91906105b7565b60405180910390f35b61017f610441565b60405161018c9190610983565b60405180910390f35b61019d610465565b6040516101ab929190610a01565b60405180910390f35b60007f3fce835e000000000000000000000000000000000000000000000000000000007bffffffffffffffffffffffffffffffffffffffffffffffffffffffff1916827bffffffffffffffffffffffffffffffffffffffffffffffffffffffff1916148061027f57507f01ffc9a7000000000000000000000000000000000000000000000000000000007bffffffffffffffffffffffffffffffffffffffffffffffffffffffff1916827bffffffffffffffffffffffffffffffffffffffffffffffffffffffff1916145b9050919050565b60603373ffffffffffffffffffffffffffffffffffffffff167fa1bf3d27f87d96e0cfbada1b5f10efa4b98ce560e3807dd1067a12d884f3513760405160405180910390a29392505050565b600080546102df90610a60565b80601f016020809104026020016040519081016040528092919081815260200182805461030b90610a60565b80156103585780601f1061032d57610100808354040283529160200191610358565b820191906000526020600020905b81548152906001019060200180831161033b57829003601f168201915b505050505081565b6001805461036d90610a60565b80601f016020809104026020016040519081016040528092919081815260200182805461039990610a60565b80156103e65780601f106103bb576101008083540402835291602001916103e6565b820191906000526020600020905b8154815290600101906020018083116103c957829003601f168201915b505050505081565b60026020528160005260406000206020528060005260406000206000915091509054906101000a900460ff1681565b7f000000000000000000000000000000000000000000000000000000000000000081565b7f000000000000000000000000000000000000000000000000000000000000000081565b6000606060038081111561047c5761047b610a91565b5b91503060405160200161048f9190610acf565b60405160208183030381529060405290509091565b6060600080836000015184602001518560400151866060015187608001516040516020016104d6959493929190610aea565b6040516020818303038152906040526040516020016104f793929190610bd8565b6040516020818303038152906040529050919050565b600080fd5b600080fd5b60007fffffffff0000000000000000000000000000000000000000000000000000000082169050919050565b61054c81610517565b811461055757600080fd5b50565b60008135905061056981610543565b92915050565b6000602082840312156105855761058461050d565b5b60006105938482850161055a565b91505092915050565b60008115159050919050565b6105b18161059c565b82525050565b60006020820190506105cc60008301846105a8565b92915050565b600073ffffffffffffffffffffffffffffffffffffffff82169050919050565b60006105fd826105d2565b9050919050565b600061060f826105f2565b9050919050565b61061f81610604565b811461062a57600080fd5b50565b60008135905061063c81610616565b92915050565b600061064d826105f2565b9050919050565b61065d81610642565b811461066857600080fd5b50565b60008135905061067a81610654565b92915050565b600080fd5b60006060828403121561069b5761069a610680565b5b81905092915050565b6000806000606084860312156106bd576106bc61050d565b5b60006106cb8682870161062d565b93505060206106dc8682870161066b565b925050604084013567ffffffffffffffff8111156106fd576106fc610512565b5b61070986828701610685565b9150509250925092565b600081519050919050565b600082825260208201905092915050565b6000819050602082019050919050565b600081519050919050565b600082825260208201905092915050565b60005b8381101561077957808201518184015260208101905061075e565b60008484015250505050565b6000601f19601f8301169050919050565b60006107a18261073f565b6107ab818561074a565b93506107bb81856020860161075b565b6107c481610785565b840191505092915050565b60006107db8383610796565b905092915050565b6000602082019050919050565b60006107fb82610713565b610805818561071e565b9350836020820285016108178561072f565b8060005b85811015610853578484038952815161083485826107cf565b945061083f836107e3565b925060208a0199505060018101905061081b565b50829750879550505050505092915050565b6000602082019050818103600083015261087f81846107f0565b905092915050565b600081519050919050565b600082825260208201905092915050565b60006108ae82610887565b6108b88185610892565b93506108c881856020860161075b565b6108d181610785565b840191505092915050565b600060208201905081810360008301526108f681846108a3565b905092915050565b610907816105f2565b811461091257600080fd5b50565b600081359050610924816108fe565b92915050565b600080604083850312156109415761094061050d565b5b600061094f85828601610915565b925050602061096085828601610915565b9150509250929050565b6000819050919050565b61097d8161096a565b82525050565b60006020820190506109986000830184610974565b92915050565b6000819050919050565b6109b18161099e565b82525050565b600082825260208201905092915050565b60006109d38261073f565b6109dd81856109b7565b93506109ed81856020860161075b565b6109f681610785565b840191505092915050565b6000604082019050610a1660008301856109a8565b8181036020830152610a2881846109c8565b90509392505050565b7f4e487b7100000000000000000000000000000000000000000000000000000000600052602260045260246000fd5b60006002820490506001821680610a7857607f821691505b602082108103610a8b57610a8a610a31565b5b50919050565b7f4e487b7100000000000000000000000000000000000000000000000000000000600052602160045260246000fd5b610ac9816105f2565b82525050565b6000602082019050610ae46000830184610ac0565b92915050565b600060a0820190508181036000830152610b0481886108a3565b90508181036020830152610b1881876108a3565b9050610b2760408301866105a8565b8181036060830152610b3981856108a3565b90508181036080830152610b4d81846108a3565b90509695505050505050565b600060ff82169050919050565b60008160f81b9050919050565b6000610b7e82610b66565b9050919050565b610b96610b9182610b59565b610b73565b82525050565b600081905092915050565b6000610bb28261073f565b610bbc8185610b9c565b9350610bcc81856020860161075b565b80840191505092915050565b6000610be48286610b85565b600182019150610bf48285610b85565b600182019150610c048284610ba7565b915081905094935050505056fea2646970667358221220a687aff6fc95bb5cc7047579351dd94e3bdf49aa974c3ff56ec861ec4881e22564736f6c63430008120033",
  "linkReferences": {},
  "deployedLinkReferences": {}
}